:100000000C9484010C9454110C9429110C94FE103E
:100010000C94D3100C94A8100C947D100C945210D6
:100020000C9427100C94B5010C94B5010C94B501F7
:100030000C94B5010C94B5010C94B5010C94B50168
:100040000C94B5010C94B5010C94B5010C94B50158
:100050000C94B5010C94B5010C94B5010C94DD0F12
:100060000C94B5010C94A70F0C947D0F0C94B50162
:100070000C94B5010C94B5010C94B5010C94B50128
:100080000C94B5010C94B5010C94B5010C94B50118
:100090000C94B5010C94B5010C94B5010C947F112E
:1000A0000C94B5010C94B5010C94B5010C94B501F8
:1000B0000C94B5010C94B5010C94B5010C94B501E8
:1000C0000C94B5010C94B5010C94B5010C94B501D8
:1000D0000C94B5010C94B5010C94B5010C94B501C8
:1000E0000C94B5010C9460050C9448030C947405B1
:1000F0000C9488050C9429030C945E0C0C9419053F
:100100000C9444030C9456030C94050D0C94D601E6
:100110000C94F8080C9405050C9460030C946E0381
:100120000C94E5050C9427020C9433050C94320FC3
:100130000C94540D0C945C0C0C9452030C94E50834
:100140000C945E090C94BA020C945B090C9436165C
:100150000C942F030C9421050C943E030C944E0335
:100160000C94E4050C942C090C9464030C946A051B
:100170000C94070A0C9447050C9469030C943D05F4
:100180000C940F050C9437030C94BF120C94E605E5
:100190000C9435020C94EE040C94FB040C94D501E1
:1001A0000C9413020C946D020C94FF080C945C03E5
:1001B0000C94D7010C9429050C9433030C946A0316
:1001C0000C9456050C9404020C943B030C94C30944
:1001D0000C94F6040C94D6080C943C0F0C947E05F9
:1001E0000C94D50800002100240027002A002D00CF
:1001F0003000330001010000040107010A01000082
:100200002200250028002B002E00310034000201BE
:100210000000050108010B0100002000230026005A
:1002200029002C002F00320000010000030106010C
:10023000090105050505070508080808020202026C
:100240000A0A080804040404010101010101010172
:100250000303030303030303040707070C0C0C0C3D
:100260000C0C0C0C02020202060606060606060626
:100270000B0B0B0B0B0B0B0B0102102020080810B3
:100280002040102040800201020108040201010206
:1002900004081020408080402010080402018004DF
:1002A000020180402010080402010804020101023A
:1002B0000408102040800102040810204080000043
:1002C0000A0B02090C0D0E080703040100000000D0
:1002D000000000000000000000000000000000001E
:1002E00000000000000000000000121110000000DB
:1002F00000000000000000000000000000000000FE
:1003000000000000BF12361611241FBECFEFD1E24D
:10031000DEBFCDBF00E00CBF13E0A0E0B2E0EAE634
:10032000F4E300E00BBF02C007900D92A232B107C8
:10033000D9F724E0A2E2B3E001C01D92A83EB207C3
:10034000E1F711E0C3E8D1E000E006C02197010920
:10035000802FFE010E94E018C238D10780E0080714
:10036000A9F70E9436130C94231A0C940000FC0188
:100370009081909528E030E081E397FF03C0990FCA
:10038000982701C0990F21503109B9F78181892738
:1003900028E030E091E387FF03C0880F892701C080
:1003A000880F21503109B9F7089508950895AF9243
:1003B000BF92CF92DF92EF92FF920F931F93CF9352
:1003C000DF936C017B018B01040F151FEB015E01B4
:1003D000AE18BF08C017D10759F06991D601ED9149
:1003E000FC910190F081E02DC6011995892B79F7D8
:1003F000C501DF91CF911F910F91FF90EF90DF909A
:10040000CF90BF90AF900895FC01538D448D252F60
:1004100030E0842F90E0821B930B541710F0CF969E
:10042000089501970895FC01918D828D981761F0D0
:10043000A28DAE0FBF2FB11D5D968C91928D9F5FE7
:100440009F73928F90E008958FEF9FEF0895FC01C6
:10045000918D828D981731F0828DE80FF11D858D79
:1004600090E008958FEF9FEF0895FC01918D228D0C
:10047000892F90E0805C9F4F821B91098F73992791
:10048000089586EF93E00E94350221E0892B09F45C
:1004900020E0822F0895FC01A48DA80FB92FB11D73
:1004A000A35ABF4F2C91848D90E001968F739927AA
:1004B000848FA689B7892C93A089B1898C91837088
:1004C00080648C93938D848D981306C00288F38981
:1004D000E02D80818F7D80830895EF92FF920F93AE
:1004E0001F93CF93DF93EC0181E0888F9B8D8C8DE0
:1004F00098131AC0E889F989808185FF15C09FB7D4
:10050000F894EE89FF896083E889F9898081837096
:10051000806480839FBF81E090E0DF91CF911F9145
:100520000F91FF90EF900895F62E0B8D10E00F5F66
:100530001F4F0F731127E02E8C8D8E110CC00FB63C
:1005400007FCFACFE889F989808185FFF5CFCE01D4
:100550000E944B02F1CFEB8DEC0FFD2FF11DE35A02
:10056000FF4FF0829FB7F8940B8FEA89FB89808157
:100570008062CFCFCF93DF93EC01888D8823B9F0D1
:10058000AA89BB89E889F9898C9185FD03C080819E
:1005900086FD0DC00FB607FCF7CF8C9185FFF2CF1B
:1005A000808185FFEDCFCE010E944B02E9CFDF9124
:1005B000CF91089580E090E0892B29F00E944102BC
:1005C00081110E94000080E090E0892B49F080E0DA
:1005D00090E0892B29F00E94000081110E94000008
:1005E00080E090E0892B49F080E090E0892B29F0B1
:1005F0000E94000081110E94000080E090E0892BA1
:1006000049F080E090E0892B29F00E9400008111E0
:100610000C94000008958150823108F05AC0E82FF0
:10062000F0E08827E95EFC4F8F4F0C94E018370309
:100630003B0329032F03330369033E0344034803A9
:100640004E03520356035C036003690364036A03A9
:100650006E03809180008F77809380000895809151
:1006600080008F7DF9CF80918000877FF5CF84B5A2
:100670008F7784BD089584B58F7DFBCF8091B000C6
:100680008F778093B00008958091B0008F7DF9CF6F
:10069000809190008F7780939000089580919000D2
:1006A0008F7DF9CF80919000877FF5CF8091A0005A
:1006B0008F778093A00008958091A0008F7DF9CF5F
:1006C0008091A000877FF5CF809120018F77809364
:1006D00020010895809120018F7DF9CF8091200124
:1006E000877FF5CFCF93DF93282F30E0F901E254D5
:1006F000FD4F8491F901E858FD4FD491F901EE5C6A
:10070000FD4FC491CC23A1F081110E940B03EC2F6B
:10071000F0E0EE0FFF1FE85EFD4FA591B491EC9164
:10072000ED2381E090E009F480E0DF91CF9108951E
:1007300080E090E0FACF1F93CF93DF93282F30E033
:10074000F901E254FD4F8491F901E858FD4FD4912D
:10075000F901EE5CFD4FC491CC23A9F0162F811155
:100760000E940B03EC2FF0E0EE0FFF1FE250FE4F54
:10077000A591B4918FB7F894EC91111108C0D09560
:10078000DE23DC938FBFDF91CF911F910895DE2B85
:10079000F8CFCF93DF93CBECD4E060E08B810E9465
:1007A0009B0360E08C810E949B0361E08B810E942F
:1007B0009B0361E08C81DF91CF910C949B03CF93DD
:1007C000DF93CBECD4E061E08B810E949B0361E07E
:1007D0008C810E949B0383E090E00197F1F760E039
:1007E0008C810E949B0360E08B81DF91CF910C9400
:1007F0009B03CF93DF9390E0FC01E858FD4F2491D9
:100800008E5C9D4FFC0184918823C9F090E0880F95
:10081000991FFC01EC51FE4FA591B491FC01E250EF
:10082000FE4FC591D49161110DC09FB7F8948C9182
:10083000209582238C938881282328839FBFDF9172
:10084000CF910895623051F49FB7F8943C91822F74
:10085000809583238C93E8812E2BEFCF8FB7F8946C
:10086000EC912E2B2C938FBFEACFCF92DF92EF9299
:10087000FF921F93CF93DF93182FD8E097E0C92EF4
:10088000D12C60E08091CE040E949B03E12E012ECA
:10089000000CFF0861E010FF60E08091CF040E942F
:1008A0009B03C6010197F1F7F594E7941E2D61E0D3
:1008B0008091CE040E949B03C6010197F1F7D150AD
:1008C00001F760E08091CE040E949B0361E080917B
:1008D000CF040E949B0361E08091CE040E949B03A1
:1008E00060E08091CF040E94F9038091CF040E94C0
:1008F0007203892B79F0CF5FC83C91F761E080915A
:10090000CF040E94F90360E08091CF040E949B0312
:10091000C0E0E6CF61E08091CF04DF91CF911F91DD
:10092000FF90EF90DF90CF900C94F903CF93C82FF6
:100930000E94DF0384E40E9435040E94C9030E94E0
:10094000DF0380EC0E943504EC2FF0E0E45DFD4F06
:1009500080810E9435040E94C9030E94DF038091B8
:10096000CD040E943504CF910C94C9031F93CF93FB
:10097000DF93182FEB0161E00E94F903209739F40F
:1009800060E0812FDF91CF911F910C949B03CF3FAB
:10099000D10511F461E0F5CFE12FF0E0E254FD4F15
:1009A000E491E150E23108F0B3C0F0E08827E4526E
:1009B000FB4F8F4F0C94E018EE04F604FB04050582
:1009C0000F05880519052105290533053D0547054E
:1009D0005605600588056A0574057E0584B580683E
:1009E00084BDC7BDDF91CF911F91089584B580620A
:1009F00084BDC8BDF7CF809180008068809380005F
:100A0000D0938900C0938800EDCF809180008062F0
:100A100080938000D0938B00C0938A00E3CF8091B5
:100A20008000886080938000D0938D00C0938C00FC
:100A3000D9CF8091B00080688093B000C093B3009C
:100A4000D1CF8091B00080628093B000C093B40099
:100A5000C9CF80919000806880939000D0939900D6
:100A6000C0939800BFCF80919000806280939000E7
:100A7000D0939B00C0939A00B5CF8091900088607E
:100A800080939000D0939D00C0939C00ABCF809149
:100A9000A00080688093A0008091A0008F7B80934D
:100AA000A000D093A900C093A8009CCF8091A00083
:100AB00080628093A000D093AB00C093AA0092CF35
:100AC0008091A00088608093A000D093AD00C09377
:100AD000AC0088CF80912001806880932001D09362
:100AE0002901C09328017ECF8091200180628093EC
:100AF0002001D0932B01C0932A0174CF8091200153
:100B0000886080932001D0932D01C0932C016ACF7F
:100B1000C038D1050CF03ECF33CF3FB7F894809169
:100B2000770390917803A0917903B0917A0326B569
:100B3000A89B05C02F3F19F00196A11DB11D3FBF15
:100B4000BA2FA92F982F8827BC01CD01620F711DE4
:100B5000811D911D42E0660F771F881F991F4A95DE
:100B6000D1F708958F929F92AF92BF92CF92DF926A
:100B7000EF92FF924B015C010E948D056B017C019D
:100B80000E948D056C197D098E099F09683E73408E
:100B900081059105A8F321E0821A9108A108B10806
:100BA00088EEC80E83E0D81EE11CF11C811491046C
:100BB000A104B10429F7FF90EF90DF90CF90BF9090
:100BC000AF909F908F900895089508950895FC0127
:100BD000838194818230910538F0880F991F880FA6
:100BE000991F05970197F1F70895EF92FF920F93E0
:100BF0001F93CF93DF93EC01062F18E061E088810B
:100C00000E94F903CE010E94E705E02EF12C60E07E
:100C100000FF61E089810E94F903CE010E94E7058F
:100C200060E088810E94F903CE010E94E705F594F7
:100C3000E7940E2D115011F761E088810E94F903AD
:100C400060E089810E94F903CE010E94E70560E01F
:100C500088810E94F903CE010E94E70589810E94E4
:100C60007203182F811104C061E089810E94F90389
:100C7000CE010E94E70561E088810E94F903CE0160
:100C80000E94E70581E0111101C080E0DF91CF9162
:100C90001F910F91FF90EF900895CF93DF93EC0198
:100CA00061E089810E94F903CE010E94E70560E0BE
:100CB00088810E94F903CE010E94E70560E08981E6
:100CC0000E94F903CE01DF91CF910C94E705CF93F9
:100CD000DF93EC0161E089810E94F903CE01DF918D
:100CE000CF910C94E7057F928F929F92AF92BF9223
:100CF000CF92DF92EF92FF920F931F93CF93DF93E8
:100D000000D01F92CDB7DEB78C01FA0130E067FF4B
:100D100002C0619531E0309709F047C019821A820C
:100D20001B828FE38C83C8010E94670660E4C801C0
:100D30000E94F505C8010E944D06C8010E94670681
:100D400060ECC8010E94F505FE0131967F016E013D
:100D5000F5E0CF0ED11CD7016D917D01C8010E9435
:100D6000F505CE14DF04B9F7C8010E944D06C8018D
:100D70000E946706F80162816F706058C8010E9486
:100D8000F505C8010F900F900F900F90DF91CF9154
:100D90001F910F91FF90EF90DF90CF90BF90AF9099
:100DA0009F908F907F900C944D06CE0101965C0130
:100DB0004E0193E0891A91087501C62E660FDD0871
:100DC00080E4782ECF01B6010E94CC18AC01982F98
:100DD00081110AC0309741F4F7011382332379F06F
:100DE000F701738230E00BC0445E5D4FDA018C91F5
:100DF000D70113968C93911102C0EF2B79F3FB016D
:100E000081E0E81AF108E814F904E1F6222309F474
:100E10008ACF41E050E04C0F5D1F4C5F5F4FD50122
:100E20009D915D01FD013197822F8078892B808310
:100E3000220F4A175B0799F776CFAB0177FF04C003
:100E400044275527461B570B77FD04C06AE020E076
:100E50000C94730666EFFBCF20914F03260F3327C8
:100E6000331F21323105ECF42091CC03FC0190E0DA
:100E700080E0243069F082E00895A0914F03219131
:100E8000AC01415D5C4FA40FB52FB11D2C930196B1
:100E9000861798F380914F03680F60934F0380E0AB
:100EA000089581E008951092CC0381E08093CB03F4
:100EB0001092A60361E084E10E949B0361E085E15A
:100EC0000E949B03E9EBF0E080818E7F808380812C
:100ED0008D7F808388E48093B80085E48093BC0094
:100EE000089510928503109284031092D3031092F8
:100EF000F5030E94530785ED91E09093830380935F
:100F0000820386ED91E0909381038093800308959E
:100F1000CF93DF9391E090932E038823B9F0C09193
:100F2000B800D091BA008091BC008A7B8093BC004D
:100F300060E084E10E949B0360E085E10E949B03E6
:100F40000E945307D093BA00C093B800DF91CF91AD
:100F500008958F929F92AF92BF92CF92DF92EF92BD
:100F6000FF920F931F93CF93DF93D091F503D1326C
:100F700008F0D7C0182FC091F4030E948D056B01B3
:100F80007C018091CC0381116BC082E08093CC0303
:100F90001093CB038FEF8093CA031092C903D093B1
:100FA000C803A4EDB3E0E8EAF3E080E0D81391C011
:100FB0001092A7038091A703CC0FC82BC093A7035F
:100FC0008091A603813009F088C01092A6030E9488
:100FD0008D056B017C018091A7038093BB008091FC
:100FE000CE039091CF03A091D003B091D103892B70
:100FF0008A2B8B2BA1F00E948D050091CE031091BE
:10100000CF032091D0033091D1036C197D098E0953
:101010009F09061717072807390708F442C080916F
:10102000BC0083FDD8CF85EC8093BC000E948D0569
:101030006B017C018091CC03823009F450C0809117
:10104000CA038F3F09F46FC08091CA03803209F44C
:101050006CC08091CA03803309F469C084E026C063
:101060008091CE039091CF03A091D003B091D10392
:10107000892B8A2B8B2B09F484CF0E948D058090BD
:10108000CE039090CF03A090D003B090D1036C1901
:101090007D098E099F0986169706A806B90608F0ED
:1010A00070CF8091CD030E94880785E01092D30312
:1010B0001092F5031092D203DF91CF911F910F91FF
:1010C000FF90EF90DF90CF90BF90AF909F908F9068
:1010D00008959D9191938F5F69CF85EEA5CF809103
:1010E000CE039091CF03A091D003B091D103892B6F
:1010F0008A2B8B2B09F49ECF0E948D050091CE0385
:101100001091CF032091D0033091D1036C197D0948
:101110008E099F09061717072807390708F08ACF95
:10112000C0CF81E0C3CF80E0C1CF82E0BFCF83E0FA
:10113000BDCFDC0111968D919C91DC01ED91FC916C
:101140000280F381E02D41E050E01995019729F4E8
:1011500081E00E94A90791E0811190E0892F089514
:10116000CF93DF93EC018B818823A1F0888191E0FC
:101170009093D2038093F4031092D3031092F5035B
:1011800081E00E94A90791E0811190E0892FDF9111
:10119000CF9108950E94710781E08B83CE010E9458
:1011A000B008982F8111E2CFF1CF0895E091850327
:1011B00080918403E81730F4F0E0EA57FC4F808117
:1011C00090E008958FEF9FEF0895909185038091AF
:1011D00084032FEF3FEF981748F4E92FF0E0EA5728
:1011E000FC4F208130E09F5F90938503C9010895F3
:1011F0008091840390918503891B990B0895CF9268
:10120000DF92EF92FF920F931F93CF93DF937C01B6
:10121000CB018A012091D203222389F0EB016B01DB
:10122000C40ED51ECC15DD0569F06991D701ED918D
:10123000FC910190F081E02DC7011995F3CF642F47
:101240000E942C07C801DF91CF911F910F91FF9051
:10125000EF90DF90CF900895CF93DF931F92CDB79B
:10126000DEB769832091D2032223F9F02091F503A0
:10127000203258F021E030E0FC013383228390E0FB
:1012800080E00F90DF91CF9108958091D303E82FF4
:10129000F0E0EC52FC4F998190838F5F8093D303F1
:1012A0008093F50381E090E0ECCF61E0CE01019600
:1012B0000E942C07F7CF90E080E00895CF92DF9254
:1012C000EF92FF928FB7F894C0907303D09074039D
:1012D000E0907503F09076038FBF80912A03909180
:1012E0002B03A0912C03B0912D03A7019601281B7D
:1012F000390B4A0B5B0BDA01C9010697A105B10551
:1013000048F183E20E947203892B89F580911202D1
:10131000909113020197909313028093120280918F
:1013200012029091130297FD07C0809112029091D2
:101330001302853691050CF58091120290911302EB
:1013400097FD1EC080911202909113029093130298
:1013500080931202C0922A03D0922B03E0922C03B6
:10136000F0922D03FF90EF90DF90CF900895809141
:101370001202909113020196CECF84E690E0E6CF60
:1013800090E080E0E3CFCF92DF92EF92FF928FB7B1
:10139000F894C0907303D0907403E0907503F090BC
:1013A00076038FBF8091260390912703A091280395
:1013B000B0912903A7019601281B390B4A0B5B0B3F
:1013C000DA01C9010697A105B10570F08FE10E940D
:1013D0007203892BB1F48091100290911102019750
:1013E0009093110280931002C0922603D09227039B
:1013F000E0922803F0922903FF90EF90DF90CF90C6
:10140000089580911002909111020196E9CFCF9238
:10141000DF92EF92FF928FB7F894C0907303D09051
:101420007403E0907503F09076038FBF80912203E0
:1014300090912303A0912403B0912503A701960165
:10144000281B390B4A0B5B0BDA01C9010697A10572
:10145000B10570F081E20E947203892BB1F4809192
:101460001402909115020197909315028093140233
:10147000C0922203D0922303E0922403F09225032A
:10148000FF90EF90DF90CF9008958091140290919B
:1014900015020196E9CF2F923F924F925F926F9281
:1014A0007F928F929F92AF92BF92CF92DF92EF92F4
:1014B000FF920F931F93CF93DF936C011B01F12CCD
:1014C000E12C86E0A82EB12CD60114968D919C912A
:1014D00085010E191F098017910708F48C01F60188
:1014E000D0810E948D052B013C018091CC0381119C
:1014F00072C0C02F013208F0C0E2F1E0F093CC03DB
:1015000021E0C501801B910BE816F90608F420E0E4
:101510002093CB038FEF8093CA031092C9038C0FE3
:101520008093C803A1E0A093A7038091A703DD0FD8
:10153000D82BD093A7038091A603813009F090C0E7
:101540001092A6030E948D052B013C018091A703F8
:101550008093BB008091CE039091CF03A091D003E4
:10156000B091D103892B8A2B8B2BA1F00E948D0582
:101570002091CE033091CF034091D0035091D103FD
:101580006419750986099709261737074807590707
:1015900008F442C08091BC0083FDD8CFB5ECB09375
:1015A000BC000E948D052B013C018091CC03813051
:1015B00009F45AC08091C9038C1710F4C091C90373
:1015C000A8EAB3E0E6E8F3E080E08C1751F19D91E2
:1015D00091938F5FFACF8091CE039091CF03A0912A
:1015E000D003B091D103892B8A2B8B2B09F47DCFAB
:1015F0000E948D052091CE033091CF034091D003FE
:101600005091D10364197509860997092617370780
:101610004807590708F069CF8091CD030E948807D9
:10162000C0E010928503C0938403C017110609F02F
:1016300058C041018E0C9F1CE401CE018819990904
:101640008017910798F5D60111968D919C91DC0138
:10165000ED91FC910284F385E02D19958993EDCFEE
:10166000E5EEE093BC009DCF8091CE039091CF0337
:10167000A091D003B091D103892B8A2B8B2B09F435
:1016800094CF0E948D052091CE033091CF034091DD
:10169000D0035091D103641975098609970926175B
:1016A00037074807590708F080CFB6CFE00EF11E84
:1016B000B6E0EB16F10408F407CF81E0DF91CF919B
:1016C0001F910F91FF90EF90DF90CF90BF90AF9060
:1016D0009F908F907F906F905F904F903F902F9052
:1016E000089580E0EBCF0F931F93CF93DF9300D04B
:1016F00000D01F92CDB7DEB7FC0189E88F838485C7
:101700009585DC0114962D913C91232B21F460E00A
:1017100070E0CB0145C08F01FC01208131E03093A6
:10172000D2032093F4031092D3031092F503BE0169
:10173000695F7F4F0E949908882349F36AE070E04F
:1017400080E090E00E94B205BE016F5F7F4FD8013C
:101750001C968D919C910E944B0A8823C1F2CE0168
:1017600001960E94B7019B818913D1CFCE010496C7
:101770000E94B7019E818913CACF69817A81762739
:101780006727762790E080E0982F872F762F6627AF
:101790002C81622B982F872F762F66272D81622B25
:1017A00027960FB6F894DEBF0FBECDBFDF91CF9165
:1017B0001F910F910895FC0101900020E9F73197E6
:1017C000AF01481B590BBC0186EF93E00C94D70185
:1017D0008F929F92AF92BF920F931F93CF93DF93FD
:1017E000CDB7DEB7A1970FB6F894DEBF0FBECDBF61
:1017F00019A2423008F44AE08E010F5D1F4F842E7B
:10180000912CB12CA12CA50194010E945D16E62F0C
:10181000B901CA01EA30F4F4E05DD801EE938D011C
:10182000232B242B252B79F790E080E0109719F0DB
:10183000CD010E94DB0BA1960FB6F894DEBF0FBE60
:10184000CDBFDF91CF911F910F91BF90AF909F902F
:101850008F900895E95CE1CFCF93C82F81E080930A
:10186000D20380E78093F4031092D3031092F50320
:1018700061E070E00C2E01C0660F0A94EAF783E97C
:1018800094E00E942C0981E00E94A9076C2F70E06F
:1018900090E080E04AE0CF910C94E80BCF93DF9387
:1018A0000E94DB0BEC0184E792E00E94DB0B8C0FC3
:1018B0009D1FDF91CF9108950C948B190C948B1977
:1018C000DF92EF92FF920F931F93CF93DF931F92BC
:1018D000CDB7DEB78C01DC011C968D919C910097F1
:1018E00011F00E948B19F80186859785009739F0D1
:1018F000DC01ED91FC910280F381E02D1995F80156
:1019000080899189009739F0DC01ED91FC9102808A
:10191000F381E02D199586E090E00E94EF187C019C
:1019200084E4F701808383E994E0928381831382C6
:1019300080E290E095838483D8011D96FC92EE921C
:101940001C970E947107DD24D394F701D382C7014D
:101950000E94B008F82E882309F44BC084E98983DB
:10196000D8011C968D919C91FC0124813581232BFB
:1019700009F449C02081D092D2032093F40310923D
:10198000D3031092F503BE016F5F7F4F0E94990849
:10199000F82E8823C1F161E070E080E090E00E94C1
:1019A000B20586E090E00E94EF18FC0186E492E028
:1019B0009183808381E094E0938382831583048301
:1019C000D8015196FC93EE93509786E090E00E94E8
:1019D000EF18FC0188E392E09183808380E094E03B
:1019E0009383828315830483D8011F96FC93EE931F
:1019F0001E978F2D0F90DF91CF911F910F91FF9028
:101A0000EF90DF900895F12CF4CF0F931F93CF93B5
:101A1000DF938C01EB0188E2FB0111928A95E9F7D3
:101A20004BE050E067E772E0CE010E94141A1B867B
:101A300081E090E0A0E0B0E08C879D87AE87BF8713
:101A4000F80182819381092E000CAA0BBB0B888BB5
:101A5000998BAA8BBB8B8DE090E0A0E0B0E08C8BE3
:101A60009D8BAE8BBF8B1CA21DA21EA21FA280E06D
:101A700090E0A0E2B2EC8C8F9D8FAE8FBF8F80E0A4
:101A800090E0AAEAB2E4888F998FAA8FBB8F8AE987
:101A900099E9A9E9BEE388A399A3AAA3BBA3DF910F
:101AA000CF911F910F9108950F931F93CF93DF93C1
:101AB0008C01EB0188E2FB0111928A95E9F74BE07A
:101AC00050E06FE772E0CE010E94141A1B8681E09D
:101AD00090E0A0E0B0E08C879D87AE87BF87F801DB
:101AE00082819381092E000CAA0BBB0B888B998BEA
:101AF000AA8BBB8B8CE090E0A0E0B0E08C8B9D8B40
:101B0000AE8BBF8B1CA21DA21EA21FA21C8E1D8EFF
:101B10001E8E1F8E80E090E0A8ECB2E4888F998F33
:101B2000AA8FBB8F80E090E0A0E0B0E488A399A3E7
:101B3000AAA3BBA3DF91CF911F910F9108952F927C
:101B40003F924F925F926F927F928F929F92AF924D
:101B5000BF92CF92DF92EF92FF920F931F93CF939A
:101B6000DF9300D000D01F92CDB7DEB7FC018FB756
:101B7000F8944090730350907403609075037090D4
:101B800076038FBF8DEF8F83248935892115310529
:101B900009F043C0828993898130910561F486EF11
:101BA0008F8305E010E084E22430310561F48F83F7
:101BB0000EE610E00FC00AE010E0029721F480EE7C
:101BC0008F8302E010E025303105B1F58EE18F837F
:101BD0000CE414E084859585DC0114962D913C91EC
:101BE000232BB1F510E0812F27960FB6F894DEBFB6
:101BF0000FBECDBFDF91CF911F910F91FF90EF905E
:101C0000DF90CF90BF90AF909F908F907F906F901C
:101C10005F904F903F902F9008952130310529F427
:101C200089E38F830CE414E0CECF2230310549F4F0
:101C300082E38F830EE610E02630310559F685E108
:101C4000B6CF8FE22330310511F20AE010E0ABCFBE
:101C50001A016B017F01FC01208131E03093D20336
:101C60002093F4031092D3031092F503BE01695F31
:101C70007F4F0E949908882309F4B4CFB80190E0FF
:101C800080E00E94B205BE016F5F7F4FD7011C96B6
:101C90008D919C910E944B0A182F882309F4A2CFA2
:101CA0000B81CE0101960E94B70108139BCF0E81D4
:101CB000CE0104960E94B701081394CF6C81862F41
:101CC00090E0982F88276D81680F792F711D90E023
:101CD00080E00E94A8174B015C016981862F90E08B
:101CE000982F88276A81680F792F711D90E080E016
:101CF0000E94A81720E030E04FE253E40E945F18F2
:101D000020E03FEF4FE757E40E94001720E030E06B
:101D100044E352E40E948E16F7016083718382834C
:101D2000938320E030E04AEF52E4C501B4010E9401
:101D30005F1820E03FEF4FE757E40E94001720E0D4
:101D400030E040EC50E40E948E164B015C0120E034
:101D500030E0A9010E945A1818160CF07FC020E04C
:101D600030E048EC52E4C501B4010E94FB1687FD47
:101D700006C0812C912C88ECA82E82E4B82ED701C5
:101D800014968D929D92AD92BC92179721143104B6
:101D900081F1F101349680E2DF011D928A95E9F725
:101DA00084E290E0A0E0B0E0F10180839183A2831F
:101DB000B383D7011A968D919C91B0E0A0E0848303
:101DC0009583A683B7838DE090E0A0E0B0E08087A4
:101DD0009187A287B387408A518A628A738AF70102
:101DE00080819181A281B381F101848B958BA68B37
:101DF000B78BC114D10409F4F6CEF601349680E213
:101E0000DF011D928A95E9F784E290E0A0E0B0E05E
:101E1000F60180839183A283B383D70118968D91B5
:101E20009C91B0E0A0E084839583A683B7838CE087
:101E300090E0A0E0B0E080879187A287B387408AD6
:101E4000518A628A738AF70184819581A681B7815C
:101E5000F601848B958BA68BB78BC5CE812C912CEC
:101E600054018DCFAB0170E060E0FC01848195816D
:101E70000E949F0D81E0089550E040E0FC018481C4
:101E800095810E949F0D81E0089585ED8093BC00AF
:101E90008091CE039091CF03A091D003B091D10354
:101EA0000796A11DB11D23E0B695A7959795879537
:101EB0002A95D1F72091BC0024FD03C01092CC03D9
:101EC00008954091CE035091CF036091D00370915B
:101ED000D103452B462B472B69F30097A105B1058C
:101EE00041F02AE22A95F1F700C00197A109B10952
:101EF000E1CF8091CD030C9488071F920F920FB60B
:101F00000F9211240BB60F922F933F934F935F9331
:101F10006F937F938F939F93AF93BF93EF93FF93B1
:101F200086EF93E00E944B02FF91EF91BF91AF913A
:101F30009F918F917F916F915F914F913F912F91E1
:101F40000F900BBE0F900FBE0F901F9018951F9211
:101F50000F920FB60F9211240BB60F922F938F93FF
:101F60009F93EF93FF93E0910604F0910704808123
:101F7000E0910C04F0910D0482FD1DC090818091D0
:101F80000F048F5F8F7320911004821741F0E0914E
:101F90000F04F0E0EA50FC4F958F80930F04FF91FF
:101FA000EF919F918F912F910F900BBE0F900FBECD
:101FB0000F901F9018958081F2CF1F920F920FB64D
:101FC0000F9211242F933F938F939F93AF93BF93BF
:101FD0008091730390917403A0917503B09176037F
:101FE0003091720323E0230F2D3758F50196A11D80
:101FF000B11D209372038093730390937403A09395
:102000007503B09376038091770390917803A09144
:102010007903B0917A030196A11DB11D80937703D6
:1020200090937803A0937903B0937A03BF91AF9113
:102030009F918F913F912F910F900FBE0F901F9006
:10204000189526E8230F0296A11DB11DD2CF1F922D
:102050000F920FB60F9211240BB60F922F933F934E
:102060004F935F936F937F938F939F93AF93BF93A0
:10207000EF93FF93E0910E02F0910F021995FF91FB
:10208000EF91BF91AF919F918F917F916F915F91F0
:102090004F913F912F910F900BBE0F900FBE0F905D
:1020A0001F9018951F920F920FB60F9211240BB626
:1020B0000F922F933F934F935F936F937F938F93E1
:1020C0009F93AF93BF93EF93FF93E0910C02F09136
:1020D0000D021995FF91EF91BF91AF919F918F9153
:1020E0007F916F915F914F913F912F910F900BBE18
:1020F0000F900FBE0F901F9018951F920F920FB662
:102100000F9211240BB60F922F933F934F935F932F
:102110006F937F938F939F93AF93BF93EF93FF93AF
:10212000E0910202F09103021995FF91EF91BF91A6
:10213000AF919F918F917F916F915F914F913F915F
:102140002F910F900BBE0F900FBE0F901F90189500
:102150001F920F920FB60F9211240BB60F922F936E
:102160003F934F935F936F937F938F939F93AF931F
:10217000BF93EF93FF93E0910002F0910102199554
:10218000FF91EF91BF91AF919F918F917F916F914F
:102190005F914F913F912F910F900BBE0F900FBE0B
:1021A0000F901F9018951F920F920FB60F92112447
:1021B0000BB60F922F933F934F935F936F937F9341
:1021C0008F939F93AF93BF93EF93FF93E0910A0296
:1021D000F0910B021995FF91EF91BF91AF919F91F3
:1021E0008F917F916F915F914F913F912F910F90C0
:1021F0000BBE0F900FBE0F901F9018951F920F925D
:102200000FB60F9211240BB60F922F933F934F935B
:102210005F936F937F938F939F93AF93BF93EF934E
:10222000FF93E0910802F09109021995FF91EF9157
:10223000BF91AF919F918F917F916F915F914F91DE
:102240003F912F910F900BBE0F900FBE0F901F90DC
:1022500018951F920F920FB60F9211240BB60F9282
:102260002F933F934F935F936F937F938F939F939E
:10227000AF93BF93EF93FF93E0910602F0910702B3
:102280001995FF91EF91BF91AF919F918F917F91A0
:102290006F915F914F913F912F910F900BBE0F90D7
:1022A0000FBE0F901F9018951F920F920FB60F92AE
:1022B00011240BB60F922F933F934F935F936F931D
:1022C0007F938F939F93AF93BF93EF93FF93E0918F
:1022D0000402F09105021995FF91EF91BF91AF9122
:1022E0009F918F917F916F915F914F913F912F912E
:1022F0000F900BBE0F900FBE0F901F9018951F925E
:102300000F920FB60F9211240BB60F922F933F939B
:102310004F935F936F937F938F939F93AF93BF93ED
:10232000EF93FF938091B900887F803609F44DC008
:1023300008F040C0883209F4A9C028F5803109F4BA
:102340009DC0C8F4882309F4FBC0883009F496C006
:10235000FF91EF91BF91AF919F918F917F916F917D
:102360005F914F913F912F910F900BBE0F900FBE39
:102370000F901F901895883109F488C0803241F77A
:102380008093CA0314C0803409F49DC040F48033A4
:10239000B9F38833E9F68093CA0385ECB0C0803581
:1023A00009F485C0883509F496C0883489F60E94FE
:1023B000450FCECF883909F48CC038F5883729F01D
:1023C00050F4883611F0803719F683E08093CC03FF
:1023D0001092710357C0883809F47BC0803919F016
:1023E000803809F0B5CF80917103803208F071C058
:1023F000E091710381E08E0F809371038091BB00A7
:10240000F0E0EF5AFC4F80833DC0803B39F0E0F4B0
:10241000803A09F479C0883A09F09ACF84E0809331
:10242000CC031092500310924F03E0918203F0917D
:102430008303199580914F0381110FC081E0809330
:102440004F0310922F0309C0803C09F4A6CF883CAB
:1024500009F4A3CF883B09F07BCFE091500381E0E2
:102460008E0F80935003F0E0E15DFC4F80818093FC
:10247000BB009091500380914F0329C08091A70326
:102480008093BB0085EC8093BC0062CF9091C90320
:102490008091C803981758F5E091C90381E08E0F29
:1024A0008093C903F0E0E855FC4F8081E9CFE091CB
:1024B000C90381E08E0F8093C9038091BB00F0E0D7
:1024C000E855FC4F80839091C9038091C803981709
:1024D000C8F285E8D8CFE091C90381E08E0F8093E0
:1024E000C9038091BB00F0E0E855FC4F80838091E8
:1024F000CB0381115CCF81E08093A60384EA8093B3
:10250000BC001092CC0324CF85EC8093BC001092C9
:10251000CC0380917103803230F4E0917103F0E0DC
:10252000EF5AFC4F10826091710370E0E0918003DC
:10253000F091810381E593E019951092710308CF22
:102540001092CA0334CFCF93DF93EC0186E18883E6
:10255000698384E690E09C838B8360E086E10E943F
:10256000F90360E089810E94F90360E088810E949C
:102570009B0360E08981DF91CF910C949B03CF9303
:10258000DF93E6EFF3E01382128288EE93E0A0E09F
:10259000B0E084839583A683B78324E532E031835A
:1025A000208325EC30E03587248724EC30E0378722
:1025B000268720EC30E0318B208B21EC30E0338B10
:1025C000228B22EC30E0358B248B26EC30E0378BED
:1025D000268B118E128E138E148EE3E9F4E0138293
:1025E000128284839583A683B78386E692E09183E3
:1025F000808360E28FED94E00E94A3126EE18AED89
:1026000094E00E94A3126AE185ED94E00E94A31277
:102610006CE180ED94E00E94A312CBECD4E084E264
:102620008B8386E28C8361E084E20E94F90361E09F
:102630008C810E94F903E5EBF4E015861486178679
:102640001686118A108A138A128A158A148AEFE96B
:10265000F4E01586148617861686118A108A138A66
:10266000128A158A148ADF91CF910895CF93DF9350
:10267000CDB7DEB7C059D1090FB6F894DEBF0FBE93
:10268000CDBF789484B5826084BD84B5816084BDFB
:1026900085B5826085BD85B5816085BD80916E0000
:1026A000816080936E001092810080918100826031
:1026B000809381008091810081608093810080916E
:1026C00080008160809380008091B100846080935D
:1026D000B1008091B00081608093B0008091910042
:1026E000826080939100809191008160809391003D
:1026F000809190008160809390008091A100826021
:102700008093A1008091A10081608093A1008091BD
:10271000A00081608093A00080912101826080935D
:10272000210180912101816080932101809120010C
:1027300081608093200180917A00846080937A0088
:1027400080917A00826080937A0080917A00816023
:1027500080937A0080917A00806880937A0010924A
:10276000C100E0910604F091070482E08083E091CB
:102770000204F09103041082E0910404F091050436
:102780008FEC808310920E04E0910A04F0910B0408
:1027900086E08083E0910804F091090480818061E3
:1027A0008083E0910804F09109048081886080832F
:1027B000E0910804F0910904808180688083E091B1
:1027C0000804F091090480818F7D808362E087E2B4
:1027D0000E94F90362E089E20E94F90362E08BE261
:1027E0000E94F90362E08DE20E94F90361E08BE050
:1027F0000E949B0361E08BE00E94F90361E08AE0A4
:102800000E949B0361E08AE00E94F90361E08DE091
:102810000E94F9038FE08093E1048093DC048093AD
:10282000D7048093D20430E4F32EF092CB0400EC72
:102830000093CC041AE81093CD0480E00E94960423
:102840000E94DF0380E40E9435040E94C9030E94B5
:10285000DF0381EC0E94350480E00E94350480E0B3
:102860000E94350480E00E9435040E94C9030E9442
:10287000DF038091CD040E9435040E94C903F092C9
:10288000CB040093CC041093CD040E94710780E028
:102890000E942C0C87E892E00E944E0C85EB94E09D
:1028A0000E94600C81110BC087EA92E00E944E0CDE
:1028B00061E070E080E090E00E94B205F9CF80EC2A
:1028C00092E00E944E0C83ED92E00E94DB0B85EBC0
:1028D00094E00E94730B40E10E94E80B84E792E0D1
:1028E0000E94DB0B1092C8041092C7041092CA0415
:1028F0001092C90481E00E942C0C84EE92E00E94A8
:102900004E0C8FE994E00E94600C81110BC086E0B0
:1029100093E00E944E0C61E070E080E090E00E9445
:10292000B205F9CF80EC92E00E944E0C83ED92E06C
:102930000E94DB0B8FE994E00E94730B40E10E9440
:10294000E80B84E792E00E94DB0B1092B204109235
:10295000B1041092B4041092B30460E083E10E94C9
:10296000F90360E081E20E94F90387E09AE0909326
:10297000090280930802809169008F7C809369002E
:10298000EA9A60E082E10E94F90360E08FE10E9430
:10299000F90383EC99E090930B0280930A028091F3
:1029A00069008F7380936900EB9A60E082E00E9477
:1029B000F90360E083E20E94F9038EE599E09093C9
:1029C00001028093000280916A008C7F80936A00EC
:1029D000EC9A61E082E30E94F90361E080E30E94E7
:1029E000F90361E084E30E94F90361E08CE20E9454
:1029F000F90361E08AE20E94F90361E08EE20E943D
:102A0000F90370E060E082E30E94B60470E060E0E9
:102A100080E30E94B6046FEF70E084E30E94B60486
:102A200070E060E08CE20E94B6046FEF70E08AE232
:102A30000E94B6046FEF70E08EE20E94B60424E6B6
:102A4000822E912CA12CB12C81E00E942C0CAE0185
:102A5000475B5F4FBE0163597F4F85EB94E00E9457
:102A60009F0D80E00E942C0CAE014F5F5F4FBE01B6
:102A70006B5D7F4F85EB94E00E949F0DC090140228
:102A8000D09015028091120290911302809112024F
:102A90009091130287E20E947203892B21F498EB34
:102AA000C92E92E2D92E89E20E94720320E030E022
:102AB00048EC52E4892B09F091C0A1966CAD7DAD34
:102AC0008EAD9FADA1970E945F180E9472178B0177
:102AD000CF57DF4F688179818A819B81C158D0406F
:102AE0000E9472177B018BE20E947203892B11F402
:102AF00008EB12E28DE20E947203892B21F488EB2D
:102B0000E82E82E2F82EB6018FED94E00E941D07B8
:102B1000A80117FF04C044275527401B510B6AE04A
:102B200017FD66EF20E485ED94E00E947306B7017F
:102B300080ED94E00E941D0710917F03183008F487
:102B40005BC010E010937F038091140290911502F6
:102B5000CC970CF459C080917E03811107C061E0CD
:102B60008BE00E949B0381E080937E0380911002A2
:102B700090911102CC970CF44EC080917D0381118D
:102B800007C061E08AE00E949B0381E080937D039F
:102B9000A0911202B09113022FEF30E00E94E818CA
:102BA000A50194010E943E1680917B0390917C03C5
:102BB0008217930741F030937C0320937B03B90184
:102BC0008DE00E94B60460917B0370917C038AEDD6
:102BD00094E00E941D070E94DA0236CF6D897E893B
:102BE0008F89988D0E945F180E9472178B0169ADC2
:102BF0007AAD8BAD9CAD74CF812F0E9496041730B7
:102C000009F49FCF1F5F9ECF60E08BE00E949B0383
:102C100010927E03ABCF60E08AE00E949B0310928B
:102C20007D03B6CFCF93DF93EC018C859D85009714
:102C300011F00E948B198E859F85009739F0DC0179
:102C4000ED91FC910280F381E02D19958889998995
:102C5000009749F0DC01ED91FC910280F381E02DB9
:102C6000DF91CF911994DF91CF9108958FE994E08E
:102C70000E94121685EB94E00C941216052E97FB19
:102C80001EF400940E94551657FD07D00E945D1651
:102C900007FC03D04EF40C94551650954095309592
:102CA00021953F4F4F4F5F4F0895909580957095B8
:102CB00061957F4F8F4F9F4F0895A1E21A2EAA1B57
:102CC000BB1BFD010DC0AA1FBB1FEE1FFF1FA217DC
:102CD000B307E407F50720F0A21BB30BE40BF50BD9
:102CE000661F771F881F991F1A9469F76095709562
:102CF000809590959B01AC01BD01CF010895A29FE5
:102D0000B001B39FC001A39F700D811D1124911DBF
:102D1000B29F700D811D1124911D08955058BB273D
:102D2000AA270E94A6160C9420180E94121838F0A8
:102D30000E94191820F039F49F3F19F426F40C94DE
:102D40000F180EF4E095E7FB0C940918E92F0E9488
:102D5000311858F3BA17620773078407950720F0F4
:102D600079F4A6F50C9453180EF4E0950B2EBA2FB7
:102D7000A02D0B01B90190010C01CA01A001112481
:102D8000FF27591B99F0593F50F4503E68F11A162D
:102D9000F040A22F232F342F4427585FF3CF4695BE
:102DA00037952795A795F0405395C9F77EF41F16E0
:102DB000BA0B620B730B840BBAF09150A1F0FF0FAA
:102DC000BB1F661F771F881FC2F70EC0BA0F621F96
:102DD000731F841F48F4879577956795B795F79586
:102DE0009E3F08F0B0CF9395880F08F09927EE0F1B
:102DF0009795879508950E94E51708F481E0089556
:102E00000E9414170C9420180E94191858F00E9460
:102E1000121840F029F45F3F29F00C940918511161
:102E20000C9454180C940F180E94311868F39923CD
:102E3000B1F3552391F3951B550BBB27AA276217B6
:102E40007307840738F09F5F5F4F220F331F441FC3
:102E5000AA1FA9F335D00E2E3AF0E0E832D09150F7
:102E60005040E695001CCAF72BD0FE2F29D0660FE4
:102E7000771F881FBB1F261737074807AB07B0E827
:102E800009F0BB0B802DBF01FF2793585F4F3AF02D
:102E90009E3F510578F00C9409180C9454185F3F2C
:102EA000E4F3983ED4F3869577956795B795F795B3
:102EB0009F5FC9F7880F911D9695879597F908959B
:102EC000E1E0660F771F881FBB1F62177307840737
:102ED000BA0720F0621B730B840BBA0BEE1F88F746
:102EE000E09508950E9479176894B1110C945418D4
:102EF00008950E94391888F09F5798F0B92F9927A4
:102F0000B751B0F0E1F0660F771F881F991F1AF0D4
:102F1000BA95C9F714C0B13091F00E945318B1E0CE
:102F200008950C945318672F782F8827B85F39F0CD
:102F3000B93FCCF3869577956795B395D9F73EF46D
:102F400090958095709561957F4F8F4F9F4F089515
:102F5000E89409C097FB3EF4909580957095619533
:102F60007F4F8F4F9F4F9923A9F0F92F96E9BB27E9
:102F70009395F695879577956795B795F111F8CF65
:102F8000FAF4BB0F11F460FF1BC06F5F7F4F8F4FD0
:102F90009F4F16C0882311F096E911C0772321F0C6
:102FA0009EE8872F762F05C0662371F096E8862F5E
:102FB00070E060E02AF09A95660F771F881FDAF7B5
:102FC000880F9695879597F90895990F0008550FE2
:102FD000AA0BE0E8FEEF16161706E807F907C0F09F
:102FE00012161306E407F50798F0621B730B840BA7
:102FF000950B39F40A2661F0232B242B252B21F481
:1030000008950A2609F4A140A6958FEF811D811D20
:10301000089597F99F6780E870E060E008959FEF5A
:1030200080EC089500240A9416161706180609065F
:10303000089500240A94121613061406050608952E
:10304000092E0394000C11F4882352F0BB0F40F4B6
:10305000BF2B11F460FF04C06F5F7F4F8F4F9F4FF6
:10306000089557FD9058440F551F59F05F3F71F078
:103070004795880F97FB991F61F09F3F79F08795DF
:103080000895121613061406551FF2CF4695F1DF68
:1030900008C0161617061806991FF1CF86957105F8
:1030A000610508940895E894BB2766277727CB012C
:1030B00097F908950E94E51708F48FEF08950E948C
:1030C00072180C9420180E94121838F00E941918D7
:1030D00020F0952311F00C9409180C940F1811246A
:1030E0000C9454180E94311870F3959FC1F3950FFA
:1030F00050E0551F629FF001729FBB27F00DB11D7C
:10310000639FAA27F00DB11DAA1F649F6627B00D0B
:10311000A11D661F829F2227B00DA11D621F739FF4
:10312000B00DA11D621F839FA00D611D221F749F02
:103130003327A00D611D231F849F600D211D822F49
:10314000762F6A2F11249F5750409AF0F1F0882370
:103150004AF0EE0FFF1FBB1F661F771F881F91509D
:103160005040A9F79E3F510580F00C9409180C942B
:1031700054185F3FE4F3983ED4F3869577956795AE
:10318000B795F795E7959F5FC1F7FE2B880F911DC7
:103190009695879597F90895AA1BBB1B51E107C027
:1031A000AA1FBB1FA617B70710F0A61BB70B881FD7
:1031B000991F5A95A9F780959095BC01CD01089566
:1031C000EE0FFF1F881F8BBF0790F691E02D19941B
:1031D0000E947F16B7FF0895821B930B08950F93EB
:1031E0001F93CF93DF938230910510F482E090E03B
:1031F000E091E604F091E70430E020E0B0E0A0E0E8
:10320000309799F42115310509F44AC0281B390B70
:1032100024303105D8F58A819B816115710589F1CA
:10322000FB0193838283FE0111C0408151810281A1
:10323000138148175907E0F04817590799F4109778
:1032400061F012960C93129713961C933296CF014D
:10325000DF91CF911F910F9108950093E604109391
:10326000E704F4CF2115310551F04217530738F028
:10327000A901DB019A01BD01DF01F801C1CFEF0116
:10328000F9CF9093E7048093E604CDCFFE01E20FDF
:10329000F31F819391932250310939832883D7CF2B
:1032A0002091E4043091E504232B41F4209118028D
:1032B000309119023093E5042093E4042091160222
:1032C000309117022115310541F42DB73EB74091D9
:1032D0001A0250911B02241B350BE091E404F0917B
:1032E000E504E217F307A0F42E1B3F0B281739075C
:1032F00078F0AC014E5F5F4F2417350748F04E0F52
:103300005F1F5093E5044093E404819391939FCF12
:10331000F0E0E0E09CCFCF93DF930097E9F0FC0171
:10332000329713821282A091E604B091E704ED0176
:1033300030E020E01097A1F420813181820F931FAB
:103340002091E4043091E5042817390709F061C0A1
:10335000F093E504E093E404DF91CF910895EA014E
:10336000CE17DF07E8F54A815B819E0141155105C3
:10337000B1F7E901FB83EA8349915991C40FD51F45
:10338000EC17FD0761F4808191810296840F951FEF
:10339000E90199838883828193819B838A83F0E00A
:1033A000E0E012968D919C9113970097B9F52D91BD
:1033B0003C911197CD010296820F931F2091E40456
:1033C0003091E5042817390739F6309751F51092F6
:1033D000E7041092E604B093E504A093E404BCCFA4
:1033E000D383C28340815181840F951FC817D907A9
:1033F00061F44E5F5F4F88819981480F591F518357
:1034000040838A819B81938382832115310509F052
:10341000B0CFF093E704E093E6049ECFFD01DC011A
:10342000C0CF13821282D7CFFB01DC014150504044
:1034300048F001900D920020C9F701C01D92415043
:103440005040E0F7089511E0C3E8D1E000E006C085
:10345000802FFE010E94E0182196011DC438D1077B
:0A34600080E00807A9F7F894FFCFF9
:10346A00E405E405E405E405E405E405E405E4050A
:10347A003200320032000000E80480003F065B4F51
:10348A00666D7D077F6F777C395E7971000103076E
:10349A000F1F3F7F00000000E5055E0CE605320FB6
:1034AA00050D00000000E5055C0CE6053C0F540D17
:1034BA00000000006D02D7010402BA0235021302AD
:1034CA002702000000002C09FF085B09D508F8084C
:1034DA00E508D6080D0A0053485434785F5400535F
:1034EA00485434785F480041646166727569742093
:1034FA0053485434782074657374202D2053656EB4
:10350A00736F7220555000436F756C646E27742078
:10351A0066696E64205348543478202D2055500033
:10352A00466F756E642053485434782073656E7301
:10353A006F720053657269616C206E756D62657297
:10354A00203078004164616672756974205348546A
:10355A0034782074657374202D2053656E736F72EE
:10356A0020444F574E00436F756C646E2774206673
:10357A00696E64205348543478202D20444F574EA6
:02358A0000003F
:00000001FF
